{
  "contractName": "CryptoSamurai",
  "abi": [
    {
      "inputs": [],
      "stateMutability": "nonpayable",
      "type": "constructor"
    },
    {
      "anonymous": false,
      "inputs": [
        {
          "indexed": true,
          "internalType": "address",
          "name": "owner",
          "type": "address"
        },
        {
          "indexed": true,
          "internalType": "address",
          "name": "approved",
          "type": "address"
        },
        {
          "indexed": true,
          "internalType": "uint256",
          "name": "tokenId",
          "type": "uint256"
        }
      ],
      "name": "Approval",
      "type": "event"
    },
    {
      "anonymous": false,
      "inputs": [
        {
          "indexed": true,
          "internalType": "address",
          "name": "owner",
          "type": "address"
        },
        {
          "indexed": true,
          "internalType": "address",
          "name": "operator",
          "type": "address"
        },
        {
          "indexed": false,
          "internalType": "bool",
          "name": "approved",
          "type": "bool"
        }
      ],
      "name": "ApprovalForAll",
      "type": "event"
    },
    {
      "anonymous": false,
      "inputs": [
        {
          "indexed": true,
          "internalType": "address",
          "name": "previousOwner",
          "type": "address"
        },
        {
          "indexed": true,
          "internalType": "address",
          "name": "newOwner",
          "type": "address"
        }
      ],
      "name": "OwnershipTransferred",
      "type": "event"
    },
    {
      "anonymous": false,
      "inputs": [
        {
          "indexed": true,
          "internalType": "address",
          "name": "from",
          "type": "address"
        },
        {
          "indexed": true,
          "internalType": "address",
          "name": "to",
          "type": "address"
        },
        {
          "indexed": true,
          "internalType": "uint256",
          "name": "tokenId",
          "type": "uint256"
        }
      ],
      "name": "Transfer",
      "type": "event"
    },
    {
      "inputs": [],
      "name": "_baseURL",
      "outputs": [
        {
          "internalType": "string",
          "name": "",
          "type": "string"
        }
      ],
      "stateMutability": "view",
      "type": "function"
    },
    {
      "inputs": [],
      "name": "_provenanceHash",
      "outputs": [
        {
          "internalType": "string",
          "name": "",
          "type": "string"
        }
      ],
      "stateMutability": "view",
      "type": "function"
    },
    {
      "inputs": [
        {
          "internalType": "address",
          "name": "to",
          "type": "address"
        },
        {
          "internalType": "uint256",
          "name": "tokenId",
          "type": "uint256"
        }
      ],
      "name": "approve",
      "outputs": [],
      "stateMutability": "nonpayable",
      "type": "function"
    },
    {
      "inputs": [
        {
          "internalType": "address",
          "name": "owner",
          "type": "address"
        }
      ],
      "name": "balanceOf",
      "outputs": [
        {
          "internalType": "uint256",
          "name": "",
          "type": "uint256"
        }
      ],
      "stateMutability": "view",
      "type": "function"
    },
    {
      "inputs": [
        {
          "internalType": "uint256",
          "name": "tokenId",
          "type": "uint256"
        }
      ],
      "name": "getApproved",
      "outputs": [
        {
          "internalType": "address",
          "name": "",
          "type": "address"
        }
      ],
      "stateMutability": "view",
      "type": "function"
    },
    {
      "inputs": [
        {
          "internalType": "address",
          "name": "owner",
          "type": "address"
        },
        {
          "internalType": "address",
          "name": "operator",
          "type": "address"
        }
      ],
      "name": "isApprovedForAll",
      "outputs": [
        {
          "internalType": "bool",
          "name": "",
          "type": "bool"
        }
      ],
      "stateMutability": "view",
      "type": "function"
    },
    {
      "inputs": [],
      "name": "name",
      "outputs": [
        {
          "internalType": "string",
          "name": "",
          "type": "string"
        }
      ],
      "stateMutability": "view",
      "type": "function"
    },
    {
      "inputs": [],
      "name": "owner",
      "outputs": [
        {
          "internalType": "address",
          "name": "",
          "type": "address"
        }
      ],
      "stateMutability": "view",
      "type": "function"
    },
    {
      "inputs": [
        {
          "internalType": "uint256",
          "name": "tokenId",
          "type": "uint256"
        }
      ],
      "name": "ownerOf",
      "outputs": [
        {
          "internalType": "address",
          "name": "",
          "type": "address"
        }
      ],
      "stateMutability": "view",
      "type": "function"
    },
    {
      "inputs": [],
      "name": "renounceOwnership",
      "outputs": [],
      "stateMutability": "nonpayable",
      "type": "function"
    },
    {
      "inputs": [
        {
          "internalType": "address",
          "name": "from",
          "type": "address"
        },
        {
          "internalType": "address",
          "name": "to",
          "type": "address"
        },
        {
          "internalType": "uint256",
          "name": "tokenId",
          "type": "uint256"
        }
      ],
      "name": "safeTransferFrom",
      "outputs": [],
      "stateMutability": "nonpayable",
      "type": "function"
    },
    {
      "inputs": [
        {
          "internalType": "address",
          "name": "from",
          "type": "address"
        },
        {
          "internalType": "address",
          "name": "to",
          "type": "address"
        },
        {
          "internalType": "uint256",
          "name": "tokenId",
          "type": "uint256"
        },
        {
          "internalType": "bytes",
          "name": "_data",
          "type": "bytes"
        }
      ],
      "name": "safeTransferFrom",
      "outputs": [],
      "stateMutability": "nonpayable",
      "type": "function"
    },
    {
      "inputs": [
        {
          "internalType": "address",
          "name": "operator",
          "type": "address"
        },
        {
          "internalType": "bool",
          "name": "approved",
          "type": "bool"
        }
      ],
      "name": "setApprovalForAll",
      "outputs": [],
      "stateMutability": "nonpayable",
      "type": "function"
    },
    {
      "inputs": [
        {
          "internalType": "bytes4",
          "name": "interfaceId",
          "type": "bytes4"
        }
      ],
      "name": "supportsInterface",
      "outputs": [
        {
          "internalType": "bool",
          "name": "",
          "type": "bool"
        }
      ],
      "stateMutability": "view",
      "type": "function"
    },
    {
      "inputs": [],
      "name": "symbol",
      "outputs": [
        {
          "internalType": "string",
          "name": "",
          "type": "string"
        }
      ],
      "stateMutability": "view",
      "type": "function"
    },
    {
      "inputs": [
        {
          "internalType": "uint256",
          "name": "tokenId",
          "type": "uint256"
        }
      ],
      "name": "tokenURI",
      "outputs": [
        {
          "internalType": "string",
          "name": "",
          "type": "string"
        }
      ],
      "stateMutability": "view",
      "type": "function"
    },
    {
      "inputs": [
        {
          "internalType": "address",
          "name": "from",
          "type": "address"
        },
        {
          "internalType": "address",
          "name": "to",
          "type": "address"
        },
        {
          "internalType": "uint256",
          "name": "tokenId",
          "type": "uint256"
        }
      ],
      "name": "transferFrom",
      "outputs": [],
      "stateMutability": "nonpayable",
      "type": "function"
    },
    {
      "inputs": [
        {
          "internalType": "address",
          "name": "newOwner",
          "type": "address"
        }
      ],
      "name": "transferOwnership",
      "outputs": [],
      "stateMutability": "nonpayable",
      "type": "function"
    },
    {
      "inputs": [
        {
          "internalType": "uint256",
          "name": "count",
          "type": "uint256"
        }
      ],
      "name": "mint",
      "outputs": [],
      "stateMutability": "payable",
      "type": "function"
    },
    {
      "inputs": [
        {
          "internalType": "string",
          "name": "provenanceHash",
          "type": "string"
        }
      ],
      "name": "setProvenanceHash",
      "outputs": [],
      "stateMutability": "nonpayable",
      "type": "function"
    },
    {
      "inputs": [
        {
          "internalType": "string",
          "name": "baseURI",
          "type": "string"
        }
      ],
      "name": "setBaseURL",
      "outputs": [],
      "stateMutability": "nonpayable",
      "type": "function"
    },
    {
      "inputs": [],
      "name": "maxSupply",
      "outputs": [
        {
          "internalType": "uint256",
          "name": "",
          "type": "uint256"
        }
      ],
      "stateMutability": "view",
      "type": "function"
    },
    {
      "inputs": [],
      "name": "totalSupply",
      "outputs": [
        {
          "internalType": "uint256",
          "name": "",
          "type": "uint256"
        }
      ],
      "stateMutability": "view",
      "type": "function"
    }
  ],
  "bytecode": "0x60806040526109c46008553480156200001757600080fd5b506040518060400160405280600d81526020017f43727970746f53616d75726169000000000000000000000000000000000000008152506040518060400160405280600481526020017f4353414d0000000000000000000000000000000000000000000000000000000081525081600090805190602001906200009c929190620001be565b508060019080519060200190620000b5929190620001be565b505050620000ea620000d5620000f0640100000000026401000000009004565b620000f8640100000000026401000000009004565b620002d3565b600033905090565b6000600660009054906101000a900473ffffffffffffffffffffffffffffffffffffffff16905081600660006101000a81548173ffffffffffffffffffffffffffffffffffffffff021916908373ffffffffffffffffffffffffffffffffffffffff1602179055508173ffffffffffffffffffffffffffffffffffffffff168173ffffffffffffffffffffffffffffffffffffffff167f8be0079c531659141344cd1fd0a4f28419497f9722a3daafe3b4186f6b6457e060405160405180910390a35050565b828054620001cc906200026e565b90600052602060002090601f016020900481019282620001f057600085556200023c565b82601f106200020b57805160ff19168380011785556200023c565b828001600101855582156200023c579182015b828111156200023b5782518255916020019190600101906200021e565b5b5090506200024b91906200024f565b5090565b5b808211156200026a57600081600090555060010162000250565b5090565b600060028204905060018216806200028757607f821691505b602082108114156200029e576200029d620002a4565b5b50919050565b7f4e487b7100000000000000000000000000000000000000000000000000000000600052602260045260246000fd5b61360580620002e36000396000f3fe60806040526004361061015d576000357c01000000000000000000000000000000000000000000000000000000009004806370a08231116100d3578063b88d4fde1161008c578063b88d4fde14610456578063c87b56dd1461047f578063d5abeb01146104bc578063e985e9c5146104e7578063f2fde38b14610524578063f9e0edae1461054d5761015d565b806370a0823114610367578063715018a6146103a45780638da5cb5b146103bb57806395d89b41146103e6578063a0712d6814610411578063a22cb4651461042d5761015d565b806318160ddd1161012557806318160ddd1461025957806323b872dd1461028457806342842e0e146102ad57806349f2553a146102d6578063534308cc146102ff5780636352211e1461032a5761015d565b806301ffc9a71461016257806306fdde031461019f578063081812fc146101ca578063095ea7b3146102075780631096952314610230575b600080fd5b34801561016e57600080fd5b50610189600480360381019061018491906123a4565b610578565b60405161019691906128c3565b60405180910390f35b3480156101ab57600080fd5b506101b461065a565b6040516101c191906128de565b60405180910390f35b3480156101d657600080fd5b506101f160048036038101906101ec9190612447565b6106ec565b6040516101fe919061285c565b60405180910390f35b34801561021357600080fd5b5061022e60048036038101906102299190612364565b610771565b005b34801561023c57600080fd5b50610257600480360381019061025291906123fe565b610889565b005b34801561026557600080fd5b5061026e61091f565b60405161027b9190612b80565b60405180910390f35b34801561029057600080fd5b506102ab60048036038101906102a6919061224e565b610930565b005b3480156102b957600080fd5b506102d460048036038101906102cf919061224e565b610990565b005b3480156102e257600080fd5b506102fd60048036038101906102f891906123fe565b6109b0565b005b34801561030b57600080fd5b50610314610a46565b60405161032191906128de565b60405180910390f35b34801561033657600080fd5b50610351600480360381019061034c9190612447565b610ad4565b60405161035e919061285c565b60405180910390f35b34801561037357600080fd5b5061038e600480360381019061038991906121e1565b610b86565b60405161039b9190612b80565b60405180910390f35b3480156103b057600080fd5b506103b9610c3e565b005b3480156103c757600080fd5b506103d0610cc6565b6040516103dd919061285c565b60405180910390f35b3480156103f257600080fd5b506103fb610cf0565b60405161040891906128de565b60405180910390f35b61042b60048036038101906104269190612447565b610d82565b005b34801561043957600080fd5b50610454600480360381019061044f9190612324565b610f69565b005b34801561046257600080fd5b5061047d600480360381019061047891906122a1565b6110ea565b005b34801561048b57600080fd5b506104a660048036038101906104a19190612447565b61114c565b6040516104b391906128de565b60405180910390f35b3480156104c857600080fd5b506104d16111f3565b6040516104de9190612b80565b60405180910390f35b3480156104f357600080fd5b5061050e6004803603810190610509919061220e565b6111fd565b60405161051b91906128c3565b60405180910390f35b34801561053057600080fd5b5061054b600480360381019061054691906121e1565b611291565b005b34801561055957600080fd5b50610562611389565b60405161056f91906128de565b60405180910390f35b60007f80ac58cd000000000000000000000000000000000000000000000000000000007bffffffffffffffffffffffffffffffffffffffffffffffffffffffff1916827bffffffffffffffffffffffffffffffffffffffffffffffffffffffff1916148061064357507f5b5e139f000000000000000000000000000000000000000000000000000000007bffffffffffffffffffffffffffffffffffffffffffffffffffffffff1916827bffffffffffffffffffffffffffffffffffffffffffffffffffffffff1916145b80610653575061065282611417565b5b9050919050565b60606000805461066990612e3b565b80601f016020809104026020016040519081016040528092919081815260200182805461069590612e3b565b80156106e25780601f106106b7576101008083540402835291602001916106e2565b820191906000526020600020905b8154815290600101906020018083116106c557829003601f168201915b5050505050905090565b60006106f782611481565b610736576040517f08c379a000000000000000000000000000000000000000000000000000000000815260040161072d90612a80565b60405180910390fd5b6004600083815260200190815260200160002060009054906101000a900473ffffffffffffffffffffffffffffffffffffffff169050919050565b600061077c82610ad4565b90508073ffffffffffffffffffffffffffffffffffffffff168373ffffffffffffffffffffffffffffffffffffffff1614156107ed576040517f08c379a00000000000000000000000000000000000000000000000000000000081526004016107e490612b20565b60405180910390fd5b8073ffffffffffffffffffffffffffffffffffffffff1661080c6114ed565b73ffffffffffffffffffffffffffffffffffffffff16148061083b575061083a816108356114ed565b6111fd565b5b61087a576040517f08c379a0000000000000000000000000000000000000000000000000000000008152600401610871906129e0565b60405180910390fd5b61088483836114f5565b505050565b6108916114ed565b73ffffffffffffffffffffffffffffffffffffffff166108af610cc6565b73ffffffffffffffffffffffffffffffffffffffff1614610905576040517f08c379a00000000000000000000000000000000000000000000000000000000081526004016108fc90612aa0565b60405180910390fd5b806009908051906020019061091b929190611ff5565b5050565b600061092b60076115ae565b905090565b61094161093b6114ed565b826115bc565b610980576040517f08c379a000000000000000000000000000000000000000000000000000000000815260040161097790612b40565b60405180910390fd5b61098b83838361169a565b505050565b6109ab838383604051806020016040528060008152506110ea565b505050565b6109b86114ed565b73ffffffffffffffffffffffffffffffffffffffff166109d6610cc6565b73ffffffffffffffffffffffffffffffffffffffff1614610a2c576040517f08c379a0000000000000000000000000000000000000000000000000000000008152600401610a2390612aa0565b60405180910390fd5b80600a9080519060200190610a42929190611ff5565b5050565b60098054610a5390612e3b565b80601f0160208091040260200160405190810160405280929190818152602001828054610a7f90612e3b565b8015610acc5780601f10610aa157610100808354040283529160200191610acc565b820191906000526020600020905b815481529060010190602001808311610aaf57829003601f168201915b505050505081565b6000806002600084815260200190815260200160002060009054906101000a900473ffffffffffffffffffffffffffffffffffffffff169050600073ffffffffffffffffffffffffffffffffffffffff168173ffffffffffffffffffffffffffffffffffffffff161415610b7d576040517f08c379a0000000000000000000000000000000000000000000000000000000008152600401610b7490612a20565b60405180910390fd5b80915050919050565b60008073ffffffffffffffffffffffffffffffffffffffff168273ffffffffffffffffffffffffffffffffffffffff161415610bf7576040517f08c379a0000000000000000000000000000000000000000000000000000000008152600401610bee90612a00565b60405180910390fd5b600360008373ffffffffffffffffffffffffffffffffffffffff1673ffffffffffffffffffffffffffffffffffffffff168152602001908152602001600020549050919050565b610c466114ed565b73ffffffffffffffffffffffffffffffffffffffff16610c64610cc6565b73ffffffffffffffffffffffffffffffffffffffff1614610cba576040517f08c379a0000000000000000000000000000000000000000000000000000000008152600401610cb190612aa0565b60405180910390fd5b610cc460006118f6565b565b6000600660009054906101000a900473ffffffffffffffffffffffffffffffffffffffff16905090565b606060018054610cff90612e3b565b80601f0160208091040260200160405190810160405280929190818152602001828054610d2b90612e3b565b8015610d785780601f10610d4d57610100808354040283529160200191610d78565b820191906000526020600020905b815481529060010190602001808311610d5b57829003601f168201915b5050505050905090565b600854610d8f60076115ae565b10610dcf576040517f08c379a0000000000000000000000000000000000000000000000000000000008152600401610dc690612b60565b60405180910390fd5b600081118015610de0575060148111155b610e1f576040517f08c379a0000000000000000000000000000000000000000000000000000000008152600401610e1690612b00565b60405180910390fd5b66f8b0a10e47000081610e329190612cf7565b341015610e74576040517f08c379a0000000000000000000000000000000000000000000000000000000008152600401610e6b90612a60565b60405180910390fd5b60005b81811015610eaf57610e8960076119bc565b610e9c33610e9760076115ae565b6119d2565b8080610ea790612e9e565b915050610e77565b506000610eba610cc6565b73ffffffffffffffffffffffffffffffffffffffff1634604051610edd90612847565b60006040518083038185875af1925050503d8060008114610f1a576040519150601f19603f3d011682016040523d82523d6000602084013e610f1f565b606091505b50508091505080610f65576040517f08c379a0000000000000000000000000000000000000000000000000000000008152600401610f5c906129a0565b60405180910390fd5b5050565b610f716114ed565b73ffffffffffffffffffffffffffffffffffffffff168273ffffffffffffffffffffffffffffffffffffffff161415610fdf576040517f08c379a0000000000000000000000000000000000000000000000000000000008152600401610fd690612980565b60405180910390fd5b8060056000610fec6114ed565b73ffffffffffffffffffffffffffffffffffffffff1673ffffffffffffffffffffffffffffffffffffffff16815260200190815260200160002060008473ffffffffffffffffffffffffffffffffffffffff1673ffffffffffffffffffffffffffffffffffffffff16815260200190815260200160002060006101000a81548160ff0219169083151502179055508173ffffffffffffffffffffffffffffffffffffffff166110996114ed565b73ffffffffffffffffffffffffffffffffffffffff167f17307eab39ab6107e8899845ad3d59bd9653f200f220920489ca2b5937696c31836040516110de91906128c3565b60405180910390a35050565b6110fb6110f56114ed565b836115bc565b61113a576040517f08c379a000000000000000000000000000000000000000000000000000000000815260040161113190612b40565b60405180910390fd5b61114684848484611ba0565b50505050565b606061115782611481565b611196576040517f08c379a000000000000000000000000000000000000000000000000000000000815260040161118d90612ae0565b60405180910390fd5b60006111a0611bfc565b905060008151116111c057604051806020016040528060008152506111eb565b806111ca84611c8e565b6040516020016111db929190612823565b6040516020818303038152906040525b915050919050565b6000600854905090565b6000600560008473ffffffffffffffffffffffffffffffffffffffff1673ffffffffffffffffffffffffffffffffffffffff16815260200190815260200160002060008373ffffffffffffffffffffffffffffffffffffffff1673ffffffffffffffffffffffffffffffffffffffff16815260200190815260200160002060009054906101000a900460ff16905092915050565b6112996114ed565b73ffffffffffffffffffffffffffffffffffffffff166112b7610cc6565b73ffffffffffffffffffffffffffffffffffffffff161461130d576040517f08c379a000000000000000000000000000000000000000000000000000000000815260040161130490612aa0565b60405180910390fd5b600073ffffffffffffffffffffffffffffffffffffffff168173ffffffffffffffffffffffffffffffffffffffff16141561137d576040517f08c379a000000000000000000000000000000000000000000000000000000000815260040161137490612920565b60405180910390fd5b611386816118f6565b50565b600a805461139690612e3b565b80601f01602080910402602001604051908101604052809291908181526020018280546113c290612e3b565b801561140f5780601f106113e45761010080835404028352916020019161140f565b820191906000526020600020905b8154815290600101906020018083116113f257829003601f168201915b505050505081565b60007f01ffc9a7000000000000000000000000000000000000000000000000000000007bffffffffffffffffffffffffffffffffffffffffffffffffffffffff1916827bffffffffffffffffffffffffffffffffffffffffffffffffffffffff1916149050919050565b60008073ffffffffffffffffffffffffffffffffffffffff166002600084815260200190815260200160002060009054906101000a900473ffffffffffffffffffffffffffffffffffffffff1673ffffffffffffffffffffffffffffffffffffffff1614159050919050565b600033905090565b816004600083815260200190815260200160002060006101000a81548173ffffffffffffffffffffffffffffffffffffffff021916908373ffffffffffffffffffffffffffffffffffffffff160217905550808273ffffffffffffffffffffffffffffffffffffffff1661156883610ad4565b73ffffffffffffffffffffffffffffffffffffffff167f8c5be1e5ebec7d5bd14f71427d1e84f3dd0314c0f7b2291e5b200ac8c7c3b92560405160405180910390a45050565b600081600001549050919050565b60006115c782611481565b611606576040517f08c379a00000000000000000000000000000000000000000000000000000000081526004016115fd906129c0565b60405180910390fd5b600061161183610ad4565b90508073ffffffffffffffffffffffffffffffffffffffff168473ffffffffffffffffffffffffffffffffffffffff16148061168057508373ffffffffffffffffffffffffffffffffffffffff16611668846106ec565b73ffffffffffffffffffffffffffffffffffffffff16145b80611691575061169081856111fd565b5b91505092915050565b8273ffffffffffffffffffffffffffffffffffffffff166116ba82610ad4565b73ffffffffffffffffffffffffffffffffffffffff1614611710576040517f08c379a000000000000000000000000000000000000000000000000000000000815260040161170790612ac0565b60405180910390fd5b600073ffffffffffffffffffffffffffffffffffffffff168273ffffffffffffffffffffffffffffffffffffffff161415611780576040517f08c379a000000000000000000000000000000000000000000000000000000000815260040161177790612960565b60405180910390fd5b61178b838383611e0e565b6117966000826114f5565b6001600360008573ffffffffffffffffffffffffffffffffffffffff1673ffffffffffffffffffffffffffffffffffffffff16815260200190815260200160002060008282546117e69190612d51565b925050819055506001600360008473ffffffffffffffffffffffffffffffffffffffff1673ffffffffffffffffffffffffffffffffffffffff168152602001908152602001600020600082825461183d9190612c70565b92505081905550816002600083815260200190815260200160002060006101000a81548173ffffffffffffffffffffffffffffffffffffffff021916908373ffffffffffffffffffffffffffffffffffffffff160217905550808273ffffffffffffffffffffffffffffffffffffffff168473ffffffffffffffffffffffffffffffffffffffff167fddf252ad1be2c89b69c2b068fc378daa952ba7f163c4a11628f55a4df523b3ef60405160405180910390a4505050565b6000600660009054906101000a900473ffffffffffffffffffffffffffffffffffffffff16905081600660006101000a81548173ffffffffffffffffffffffffffffffffffffffff021916908373ffffffffffffffffffffffffffffffffffffffff1602179055508173ffffffffffffffffffffffffffffffffffffffff168173ffffffffffffffffffffffffffffffffffffffff167f8be0079c531659141344cd1fd0a4f28419497f9722a3daafe3b4186f6b6457e060405160405180910390a35050565b6001816000016000828254019250508190555050565b600073ffffffffffffffffffffffffffffffffffffffff168273ffffffffffffffffffffffffffffffffffffffff161415611a42576040517f08c379a0000000000000000000000000000000000000000000000000000000008152600401611a3990612a40565b60405180910390fd5b611a4b81611481565b15611a8b576040517f08c379a0000000000000000000000000000000000000000000000000000000008152600401611a8290612940565b60405180910390fd5b611a9760008383611e0e565b6001600360008473ffffffffffffffffffffffffffffffffffffffff1673ffffffffffffffffffffffffffffffffffffffff1681526020019081526020016000206000828254611ae79190612c70565b92505081905550816002600083815260200190815260200160002060006101000a81548173ffffffffffffffffffffffffffffffffffffffff021916908373ffffffffffffffffffffffffffffffffffffffff160217905550808273ffffffffffffffffffffffffffffffffffffffff16600073ffffffffffffffffffffffffffffffffffffffff167fddf252ad1be2c89b69c2b068fc378daa952ba7f163c4a11628f55a4df523b3ef60405160405180910390a45050565b611bab84848461169a565b611bb784848484611e13565b611bf6576040517f08c379a0000000000000000000000000000000000000000000000000000000008152600401611bed90612900565b60405180910390fd5b50505050565b6060600a8054611c0b90612e3b565b80601f0160208091040260200160405190810160405280929190818152602001828054611c3790612e3b565b8015611c845780601f10611c5957610100808354040283529160200191611c84565b820191906000526020600020905b815481529060010190602001808311611c6757829003601f168201915b5050505050905090565b60606000821415611cd6576040518060400160405280600181526020017f30000000000000000000000000000000000000000000000000000000000000008152509050611e09565b600082905060005b60008214611d08578080611cf190612e9e565b915050600a82611d019190612cc6565b9150611cde565b60008167ffffffffffffffff811115611d2457611d23612fd4565b5b6040519080825280601f01601f191660200182016040528015611d565781602001600182028036833780820191505090505b5090505b60008514611e0257600182611d6f9190612d51565b9150600a85611d7e9190612ee7565b6030611d8a9190612c70565b7f010000000000000000000000000000000000000000000000000000000000000002818381518110611dbf57611dbe612fa5565b5b60200101907effffffffffffffffffffffffffffffffffffffffffffffffffffffffffffff1916908160001a905350600a85611dfb9190612cc6565b9450611d5a565b8093505050505b919050565b505050565b6000611e348473ffffffffffffffffffffffffffffffffffffffff16611fe2565b15611fd5578373ffffffffffffffffffffffffffffffffffffffff1663150b7a02611e5d6114ed565b8786866040518563ffffffff167c0100000000000000000000000000000000000000000000000000000000028152600401611e9b9493929190612877565b602060405180830381600087803b158015611eb557600080fd5b505af1925050508015611ee657506040513d601f19601f82011682018060405250810190611ee391906123d1565b60015b611f69573d8060008114611f16576040519150601f19603f3d011682016040523d82523d6000602084013e611f1b565b606091505b50600081511415611f61576040517f08c379a0000000000000000000000000000000000000000000000000000000008152600401611f5890612900565b60405180910390fd5b805181602001fd5b63150b7a027c0100000000000000000000000000000000000000000000000000000000027bffffffffffffffffffffffffffffffffffffffffffffffffffffffff1916817bffffffffffffffffffffffffffffffffffffffffffffffffffffffff191614915050611fda565b600190505b949350505050565b600080823b905060008111915050919050565b82805461200190612e3b565b90600052602060002090601f016020900481019282612023576000855561206a565b82601f1061203c57805160ff191683800117855561206a565b8280016001018555821561206a579182015b8281111561206957825182559160200191906001019061204e565b5b509050612077919061207b565b5090565b5b8082111561209457600081600090555060010161207c565b5090565b60006120ab6120a684612bc0565b612b9b565b9050828152602081018484840111156120c7576120c6613008565b5b6120d2848285612df9565b509392505050565b60006120ed6120e884612bf1565b612b9b565b90508281526020810184848401111561210957612108613008565b5b612114848285612df9565b509392505050565b60008135905061212b81613573565b92915050565b6000813590506121408161358a565b92915050565b600081359050612155816135a1565b92915050565b60008151905061216a816135a1565b92915050565b600082601f83011261218557612184613003565b5b8135612195848260208601612098565b91505092915050565b600082601f8301126121b3576121b2613003565b5b81356121c38482602086016120da565b91505092915050565b6000813590506121db816135b8565b92915050565b6000602082840312156121f7576121f6613012565b5b60006122058482850161211c565b91505092915050565b6000806040838503121561222557612224613012565b5b60006122338582860161211c565b92505060206122448582860161211c565b9150509250929050565b60008060006060848603121561226757612266613012565b5b60006122758682870161211c565b93505060206122868682870161211c565b9250506040612297868287016121cc565b9150509250925092565b600080600080608085870312156122bb576122ba613012565b5b60006122c98782880161211c565b94505060206122da8782880161211c565b93505060406122eb878288016121cc565b925050606085013567ffffffffffffffff81111561230c5761230b61300d565b5b61231887828801612170565b91505092959194509250565b6000806040838503121561233b5761233a613012565b5b60006123498582860161211c565b925050602061235a85828601612131565b9150509250929050565b6000806040838503121561237b5761237a613012565b5b60006123898582860161211c565b925050602061239a858286016121cc565b9150509250929050565b6000602082840312156123ba576123b9613012565b5b60006123c884828501612146565b91505092915050565b6000602082840312156123e7576123e6613012565b5b60006123f58482850161215b565b91505092915050565b60006020828403121561241457612413613012565b5b600082013567ffffffffffffffff8111156124325761243161300d565b5b61243e8482850161219e565b91505092915050565b60006020828403121561245d5761245c613012565b5b600061246b848285016121cc565b91505092915050565b61247d81612d85565b82525050565b61248c81612d97565b82525050565b600061249d82612c22565b6124a78185612c38565b93506124b7818560208601612e08565b6124c081613017565b840191505092915050565b60006124d682612c2d565b6124e08185612c54565b93506124f0818560208601612e08565b6124f981613017565b840191505092915050565b600061250f82612c2d565b6125198185612c65565b9350612529818560208601612e08565b80840191505092915050565b6000612542603283612c54565b915061254d82613028565b604082019050919050565b6000612565602683612c54565b915061257082613077565b604082019050919050565b6000612588601c83612c54565b9150612593826130c6565b602082019050919050565b60006125ab602483612c54565b91506125b6826130ef565b604082019050919050565b60006125ce601983612c54565b91506125d98261313e565b602082019050919050565b60006125f1601783612c54565b91506125fc82613167565b602082019050919050565b6000612614602c83612c54565b915061261f82613190565b604082019050919050565b6000612637603883612c54565b9150612642826131df565b604082019050919050565b600061265a602a83612c54565b91506126658261322e565b604082019050919050565b600061267d602983612c54565b91506126888261327d565b604082019050919050565b60006126a0602083612c54565b91506126ab826132cc565b602082019050919050565b60006126c3601483612c54565b91506126ce826132f5565b602082019050919050565b60006126e6602c83612c54565b91506126f18261331e565b604082019050919050565b6000612709602083612c54565b91506127148261336d565b602082019050919050565b600061272c602983612c54565b915061273782613396565b604082019050919050565b600061274f602f83612c54565b915061275a826133e5565b604082019050919050565b6000612772602583612c54565b915061277d82613434565b604082019050919050565b6000612795602183612c54565b91506127a082613483565b604082019050919050565b60006127b8600083612c49565b91506127c3826134d2565b600082019050919050565b60006127db603183612c54565b91506127e6826134d5565b604082019050919050565b60006127fe602183612c54565b915061280982613524565b604082019050919050565b61281d81612def565b82525050565b600061282f8285612504565b915061283b8284612504565b91508190509392505050565b6000612852826127ab565b9150819050919050565b60006020820190506128716000830184612474565b92915050565b600060808201905061288c6000830187612474565b6128996020830186612474565b6128a66040830185612814565b81810360608301526128b88184612492565b905095945050505050565b60006020820190506128d86000830184612483565b92915050565b600060208201905081810360008301526128f881846124cb565b905092915050565b6000602082019050818103600083015261291981612535565b9050919050565b6000602082019050818103600083015261293981612558565b9050919050565b600060208201905081810360008301526129598161257b565b9050919050565b600060208201905081810360008301526129798161259e565b9050919050565b60006020820190508181036000830152612999816125c1565b9050919050565b600060208201905081810360008301526129b9816125e4565b9050919050565b600060208201905081810360008301526129d981612607565b9050919050565b600060208201905081810360008301526129f98161262a565b9050919050565b60006020820190508181036000830152612a198161264d565b9050919050565b60006020820190508181036000830152612a3981612670565b9050919050565b60006020820190508181036000830152612a5981612693565b9050919050565b60006020820190508181036000830152612a79816126b6565b9050919050565b60006020820190508181036000830152612a99816126d9565b9050919050565b60006020820190508181036000830152612ab9816126fc565b9050919050565b60006020820190508181036000830152612ad98161271f565b9050919050565b60006020820190508181036000830152612af981612742565b9050919050565b60006020820190508181036000830152612b1981612765565b9050919050565b60006020820190508181036000830152612b3981612788565b9050919050565b60006020820190508181036000830152612b59816127ce565b9050919050565b60006020820190508181036000830152612b79816127f1565b9050919050565b6000602082019050612b956000830184612814565b92915050565b6000612ba5612bb6565b9050612bb18282612e6d565b919050565b6000604051905090565b600067ffffffffffffffff821115612bdb57612bda612fd4565b5b612be482613017565b9050602081019050919050565b600067ffffffffffffffff821115612c0c57612c0b612fd4565b5b612c1582613017565b9050602081019050919050565b600081519050919050565b600081519050919050565b600082825260208201905092915050565b600081905092915050565b600082825260208201905092915050565b600081905092915050565b6000612c7b82612def565b9150612c8683612def565b9250827fffffffffffffffffffffffffffffffffffffffffffffffffffffffffffffffff03821115612cbb57612cba612f18565b5b828201905092915050565b6000612cd182612def565b9150612cdc83612def565b925082612cec57612ceb612f47565b5b828204905092915050565b6000612d0282612def565b9150612d0d83612def565b9250817fffffffffffffffffffffffffffffffffffffffffffffffffffffffffffffffff0483118215151615612d4657612d45612f18565b5b828202905092915050565b6000612d5c82612def565b9150612d6783612def565b925082821015612d7a57612d79612f18565b5b828203905092915050565b6000612d9082612dcf565b9050919050565b60008115159050919050565b60007fffffffff0000000000000000000000000000000000000000000000000000000082169050919050565b600073ffffffffffffffffffffffffffffffffffffffff82169050919050565b6000819050919050565b82818337600083830152505050565b60005b83811015612e26578082015181840152602081019050612e0b565b83811115612e35576000848401525b50505050565b60006002820490506001821680612e5357607f821691505b60208210811415612e6757612e66612f76565b5b50919050565b612e7682613017565b810181811067ffffffffffffffff82111715612e9557612e94612fd4565b5b80604052505050565b6000612ea982612def565b91507fffffffffffffffffffffffffffffffffffffffffffffffffffffffffffffffff821415612edc57612edb612f18565b5b600182019050919050565b6000612ef282612def565b9150612efd83612def565b925082612f0d57612f0c612f47565b5b828206905092915050565b7f4e487b7100000000000000000000000000000000000000000000000000000000600052601160045260246000fd5b7f4e487b7100000000000000000000000000000000000000000000000000000000600052601260045260246000fd5b7f4e487b7100000000000000000000000000000000000000000000000000000000600052602260045260246000fd5b7f4e487b7100000000000000000000000000000000000000000000000000000000600052603260045260246000fd5b7f4e487b7100000000000000000000000000000000000000000000000000000000600052604160045260246000fd5b600080fd5b600080fd5b600080fd5b600080fd5b6000601f19601f8301169050919050565b7f4552433732313a207472616e7366657220746f206e6f6e20455243373231526560008201527f63656976657220696d706c656d656e7465720000000000000000000000000000602082015250565b7f4f776e61626c653a206e6577206f776e657220697320746865207a65726f206160008201527f6464726573730000000000000000000000000000000000000000000000000000602082015250565b7f4552433732313a20746f6b656e20616c7265616479206d696e74656400000000600082015250565b7f4552433732313a207472616e7366657220746f20746865207a65726f2061646460008201527f7265737300000000000000000000000000000000000000000000000000000000602082015250565b7f4552433732313a20617070726f766520746f2063616c6c657200000000000000600082015250565b7f4661696c656420746f2073656e6420746f206f776e6572000000000000000000600082015250565b7f4552433732313a206f70657261746f7220717565727920666f72206e6f6e657860008201527f697374656e7420746f6b656e0000000000000000000000000000000000000000602082015250565b7f4552433732313a20617070726f76652063616c6c6572206973206e6f74206f7760008201527f6e6572206e6f7220617070726f76656420666f7220616c6c0000000000000000602082015250565b7f4552433732313a2062616c616e636520717565727920666f7220746865207a6560008201527f726f206164647265737300000000000000000000000000000000000000000000602082015250565b7f4552433732313a206f776e657220717565727920666f72206e6f6e657869737460008201527f656e7420746f6b656e0000000000000000000000000000000000000000000000602082015250565b7f4552433732313a206d696e7420746f20746865207a65726f2061646472657373600082015250565b7f496e73756666696369656e74207061796d656e74000000000000000000000000600082015250565b7f4552433732313a20617070726f76656420717565727920666f72206e6f6e657860008201527f697374656e7420746f6b656e0000000000000000000000000000000000000000602082015250565b7f4f776e61626c653a2063616c6c6572206973206e6f7420746865206f776e6572600082015250565b7f4552433732313a207472616e73666572206f6620746f6b656e2074686174206960008201527f73206e6f74206f776e0000000000000000000000000000000000000000000000602082015250565b7f4552433732314d657461646174613a2055524920717565727920666f72206e6f60008201527f6e6578697374656e7420746f6b656e0000000000000000000000000000000000602082015250565b7f596f752063616e206d696e74206265747765656e203120616e6420323020617460008201527f206f6e6365000000000000000000000000000000000000000000000000000000602082015250565b7f4552433732313a20617070726f76616c20746f2063757272656e74206f776e6560008201527f7200000000000000000000000000000000000000000000000000000000000000602082015250565b50565b7f4552433732313a207472616e736665722063616c6c6572206973206e6f74206f60008201527f776e6572206e6f7220617070726f766564000000000000000000000000000000602082015250565b7f43616e206e6f74206d696e74206d6f7265207468616e206d617820737570706c60008201527f7900000000000000000000000000000000000000000000000000000000000000602082015250565b61357c81612d85565b811461358757600080fd5b50565b61359381612d97565b811461359e57600080fd5b50565b6135aa81612da3565b81146135b557600080fd5b50565b6135c181612def565b81146135cc57600080fd5b5056fea2646970667358221220a7ed92695ce57ca85bba30e987a68f05e4abd174f45449abf7bd8411a8aa356264736f6c63430008060033",
  "immutableReferences": {},
  "source": "// SPDX-License-Identifier: MIT\npragma solidity 0.8.6;\n\nimport \"@openzeppelin/contracts/token/ERC721/ERC721.sol\";\nimport \"@openzeppelin/contracts/utils/Counters.sol\";\nimport \"@openzeppelin/contracts/access/Ownable.sol\";\n\ncontract CryptoSamurai is ERC721, Ownable {\n    using Counters for Counters.Counter;\n    Counters.Counter private _tokenIds;\n\n    uint256 private _maxSupply = 2500;\n\n    string public _provenanceHash;\n    string public _baseURL;\n\n    constructor() ERC721(\"CryptoSamurai\", \"CSAM\") {}\n\n    function mint(uint256 count) external payable {\n        require(_tokenIds.current() < _maxSupply, \"Can not mint more than max supply\");\n        require(count > 0 && count <= 20, \"You can mint between 1 and 20 at once\");\n        require(msg.value >= count * 0.07 ether, \"Insufficient payment\");\n        for (uint256 i = 0; i < count; i++) {\n            _tokenIds.increment();\n            _mint(msg.sender, _tokenIds.current());\n        }\n\n        bool success = false;\n        (success,) = owner().call{value : msg.value}(\"\");\n        require(success, \"Failed to send to owner\");\n    }\n\n    function setProvenanceHash(string memory provenanceHash) public onlyOwner {\n        _provenanceHash = provenanceHash;\n    }\n\n    function setBaseURL(string memory baseURI) public onlyOwner {\n        _baseURL = baseURI;\n    }\n\n    function _baseURI() internal view override returns (string memory) {\n        return _baseURL;\n    }\n\n    function maxSupply() public view returns (uint256) {\n        return _maxSupply;\n    }\n\n    function totalSupply() public view returns (uint256) {\n        return _tokenIds.current();\n    }\n}",
  "sourcePath": "/Users/macbook/projects/cryptosamurais/src/contracts/CryptoSamurai.sol",
  "compiler": {
    "name": "solc",
    "version": "0.8.6+commit.11564f7e.Emscripten.clang"
  },
  "schemaVersion": "3.4.3",
  "updatedAt": "2021-10-30T15:13:30.115Z",
  "devdoc": {
    "kind": "dev",
    "methods": {
      "approve(address,uint256)": {
        "details": "See {IERC721-approve}."
      },
      "balanceOf(address)": {
        "details": "See {IERC721-balanceOf}."
      },
      "getApproved(uint256)": {
        "details": "See {IERC721-getApproved}."
      },
      "isApprovedForAll(address,address)": {
        "details": "See {IERC721-isApprovedForAll}."
      },
      "name()": {
        "details": "See {IERC721Metadata-name}."
      },
      "owner()": {
        "details": "Returns the address of the current owner."
      },
      "ownerOf(uint256)": {
        "details": "See {IERC721-ownerOf}."
      },
      "renounceOwnership()": {
        "details": "Leaves the contract without owner. It will not be possible to call `onlyOwner` functions anymore. Can only be called by the current owner. NOTE: Renouncing ownership will leave the contract without an owner, thereby removing any functionality that is only available to the owner."
      },
      "safeTransferFrom(address,address,uint256)": {
        "details": "See {IERC721-safeTransferFrom}."
      },
      "safeTransferFrom(address,address,uint256,bytes)": {
        "details": "See {IERC721-safeTransferFrom}."
      },
      "setApprovalForAll(address,bool)": {
        "details": "See {IERC721-setApprovalForAll}."
      },
      "supportsInterface(bytes4)": {
        "details": "See {IERC165-supportsInterface}."
      },
      "symbol()": {
        "details": "See {IERC721Metadata-symbol}."
      },
      "tokenURI(uint256)": {
        "details": "See {IERC721Metadata-tokenURI}."
      },
      "transferFrom(address,address,uint256)": {
        "details": "See {IERC721-transferFrom}."
      },
      "transferOwnership(address)": {
        "details": "Transfers ownership of the contract to a new account (`newOwner`). Can only be called by the current owner."
      }
    },
    "version": 1
  },
  "userdoc": {
    "kind": "user",
    "methods": {},
    "version": 1
  }
}